:020000040800F2
:10000000280402200D0200083D5D0008255000086C
:100010001D5D0008390900080D700008000000008F
:10002000000000000000000000000000CB64000899
:10003000FB03000800000000315E0008D1660008E4
:1000400027020008270200082702000827020008EC
:100050002702000827020008F10D00082702000807
:1000600027020008270200082702000827020008CC
:100070002702000827020008950A00082702000846
:1000800027020008270200082702000827020008AC
:10009000270200082702000827020008F70D0008C1
:1000A000270200082702000827020008270200088C
:1000B0002702000815680008270200088150000880
:1000C000270200088D50000827020008115F000871
:1000D000395F000827020008D16D0008816F000811
:1000E000270200082702000827020008270200084C
:1000F000270200082702000827020008270200083C
:10010000270200082702000827020008270200082B
:1001100015690008270200082702000827020008C6
:10012000270200082702000827020008A10A000889
:1001300027020008C10C0008270200082702000857
:1001400027020008270200082702000827020008EB
:10015000AD0A000827020008270200080170000805
:10016000995000082702000827020008270200080B
:1001700027020008270200082702000800000000EC
:1001800027020008270200082702000827020008AB
:10019000270200082702000827020008270200089B
:1001A00000000000000000002702000827020008ED
:1001B000270200082702000827020008A5500008AF
:1001C000270200082702000800000000270200089C
:1001D000270200082702000827020008270200085B
:1001E000270200082702000827020008270200084B
:1001F0000000000027020008DFF80CD000F0E0FA51
:10020000004800471194000828040220064880474F
:1002100006480047FEE7FEE7FEE7FEE7FEE7FEE7EB
:10022000FEE7FEE7FEE7FEE7C1670008F901000808
:100230002DE9F0410024061B254671F1000605DA80
:1002400001240027D0EB070067EB0101161E73F1B4
:10025000000605DA0027D2EB0702012567EB03034E
:1002600000F09AF886460E4617469C46AC4204D0EB
:100270000025D0EB050E65EB010624B10020D2EB82
:10028000000760EB030C704631463A466346BDE812
:10029000F081202A04DB203A21FA02F00021704785
:1002A00021FA02F3D040C2F12002914008431946DE
:1002B000704710B5431A934209D28318881803E097
:1002C00010F8011D03F8011D521EF9D210BD40EABD
:1002D00001039B0703D009E008C9121F08C0042AC4
:1002E000FAD203E011F8013B00F8013B521EF9D2AB
:1002F00010BDD2B201E000F8012B491EFBD27047BD
:100300000022F6E710B513460A4604461946FFF7E1
:10031000F0FF204610BD421C10F8011B0029FBD144
:10032000801A704710B5002200E0521C835C8C5C80
:10033000A34201D1002BF8D1D8B2E1B2401A10BDCE
:1003400030B504460020034600E05B1C934203D214
:10035000E05CCD5C401BF8D030BD034611F8012BAA
:1003600000F8012B002AF9D11846704730B50B462A
:10037000014600202022012409E021FA02F59D42D5
:1003800005D303FA02F5491B04FA02F52844151EA9
:10039000A2F10102F1DC30BD2DE9F05F054600203D
:1003A00092469B4688460646814640241BE02846E6
:1003B000414647462246FFF76CFF53465A46C01A4D
:1003C000914110D311461846224600F00BFA2D1A1F
:1003D00067EB01084F4622460120002100F002FA97
:1003E00017EB00094E41201EA4F10104DFDC484652
:1003F00031462A464346BDE8F09F70477047704734
:10040000CC33AA55000000000000000001000300EA
:100410000510000018200000070000000800000080
:100420002DE9FE4F804681EA0300C00F0C46009084
:1004300021F0004123F00045B8EB0200A94105D2AC
:100440004046214690461C460B46024623F000409B
:10045000104347D0270DC7F30A00C3F30A51029097
:10046000401A019040286BDAC3F3130040F4801B5C
:100470000098924620B10023D2EB030A63EB0B0BEA
:1004800001985946C0F14002504600F0ABF90646CB
:100490000D4650465946019A00F0B3F910EB08009A
:1004A0006141002487EA115284EAE7731A4340D07D
:1004B000009A62B3019A012A4FEA075215DC001B29
:1004C00061EB02014FF0004202EA0752CDE900421F
:1004D000001C41F5801132462B4600F0B3F903B001
:1004E000BDE8F08F40462146F9E7001B61EB0201B1
:1004F000001C41F5801300185B412018A2F500177D
:1005000047EB030140EAD570B6196D4111E06D0863
:100510004FEA360645EAC0754FEA0752001B61EB09
:100520000201001C41F5801149084FEA3000001912
:10053000514132462B4603B0BDE8F04F00F073B98D
:100540000098012240000023D0EB020263EBE0732D
:10055000009821464FEAE074B8EB000061EB04011B
:10056000E9E783F000435BE781F0004158E72DE9BC
:10057000FE4F81EA030404F0004421F0004100949E
:100580004FF0000B23F0004350EA01045ED052EA22
:1005900003045BD0C3F30A54C1F30A552C44A4F2FC
:1005A000F3340194A0FB0254C1F3130141F4801110
:1005B000C3F3130343F4801301FB024400FB034E17
:1005C000840A970A44EA815447EA8357A4FB0768E0
:1005D00002958D0A05FB07854FEA932C04FB0C540A
:1005E0002705029D4FEA065847EA1637B5EB08057E
:1005F0006EEB070C870E920E47EA811742EA8312D0
:10060000A7FB0201B6EB0B0164EB00042B0D43EAE0
:100610000C335E1844EB1C50DA465146E7FB0201EE
:10062000C5F313044FEA0B3343EA14534FEA043281
:10063000019C43EA0603A4F10C040294009CCDE95A
:1006400000B400F0FFF803B0BDE8F08F00200146D1
:10065000F9E72DE9F04D81EA030404F0004B21F0A5
:10066000004514464FF0000A23F0004150EA05020D
:1006700020D054EA01021DD0C5F30A570246C5F343
:100680001303C1F31300C1F30A5640F4801543F479
:100690008013A7EB0608101BD64608F2FD3873EB53
:1006A000050002D308F1010801E092185B41B8F19E
:1006B000000F03DA00200146BDE8F08D00204FF462
:1006C0008011064684460EE0171B73EB050705D321
:1006D000121B63EB050306434CEA010C49084FEA81
:1006E000300092185B4150EA0107EDD152EA030055
:1006F00012D082EA040083EA0501084305D0101BEA
:10070000AB4106D20122002306E000224FF0004355
:1007100002E06FF0010253101AEB06004CEB085197
:1007200010EB0A0041EB0B01BDE8F04D00F07BB887
:1007300070B521F0004303430CD0C1F30A550024E7
:10074000D5EB040564EB0403D617AD1AB34102DB05
:100750000020014670BD201841EB025170BDC1F36D
:100760000A52C1F3130140F2FF3341F480119A425F
:1007700002DA00200146704740F233439A42A2F267
:10078000334202DC5242FFF784BD00F02BB8000078
:1007900030B5041E71F1000404DB4FF00044404208
:1007A00064EB0101141E73F1000405DB1C464FF0DD
:1007B0000043524263EB0403994208BF904230BDAC
:1007C000064C074D06E0E06840F0010394E807009E
:1007D00098471034AC42F6D3FFF712FD40BD000835
:1007E00060BD0008202A04DB203A00FA02F1002054
:1007F00070479140C2F1200320FA03F3194390405F
:100800007047202A06DBCB17203A41FA02F043EA70
:10081000E07306E041FA02F3D040C2F120029140B9
:1008200008431946704710B5141E73F1000408DA26
:10083000401C41F1000192185B411A4301D120F0A4
:10084000010010BD2DE9F04D92469B4611B1B1FA61
:1008500081F202E0B0FA80F220329046FFF7C2FF48
:1008600004460F4640EA0A0041EA0B0153465A4645
:10087000084313D0114653EA010019D0C8F14002D1
:100880005046FFF706FD05460E465046594642467D
:10089000FFF7A8FF084305D0012004E020463946B1
:1008A000BDE8F08D0020054346EAE0762C4337434F
:1008B0000A986305E40AA0EB08000022FD0A44EA56
:1008C00047540A3002D500200146E9E70105101916
:1008D0006941DDE9084500196941BDE8F04DA2E72D
:1008E00070B58C1810F8015B15F0070301D110F8F2
:1008F000013B2A1106D110F8012B03E010F8016B1F
:1009000001F8016B5B1EF9D12B0705D40023521EA1
:100910000DD401F8013BFAE710F8013BCB1A921C09
:1009200003E013F8015B01F8015B521EF9D5A14207
:10093000D8D3002070BD000001A006F099FBFEE7AF
:100940000D0A204275734661756C745F48616E6470
:100950006C6572200D0A0000F0B5BFF34F8FBFF336
:100960006F8F19490020174B0860196841F4003156
:100970001960BFF34F8FBFF36F8F1249703108605A
:10098000BFF34F8F081F104D43F6FF7410350068FA
:10099000C0F34E31C0F3C90204EA4116104600BF4D
:1009A00046EA80772F60401EFAD2491EF4D2BFF388
:1009B0004F8F186840F480301860BFF34F8FBFF33B
:1009C0006F8FF0BD14ED00E050EF00E01048002103
:1009D0008160018809B1491E018082780A21521C78
:1009E000B2FBF1F301FB13228270002A0FD1C2780F
:1009F000521CB2FBF1F301FB1322C270002A06D194
:100A00000279521CB2FBF1F301FB13210171704713
:100A10003084012010B530BF03488068002802D020
:100A2000FFF7D4FF012010BD3084012010480021C1
:100A30008160018809B1491E018082780A21521C17
:100A4000B2FBF1F301FB13228270002A0FD1C278AE
:100A5000521CB2FBF1F301FB1322C270002A06D133
:100A60000279521CB2FBF1F301FB132101717047B3
:100A70003C8401200021FF2000F0D8B90028044860
:100A80004FF4807101D0012200E0002202F06DBC21
:100A900000100240014801F0ABBD0000BC62002024
:100AA000014801F0A5BD0000C4030020014801F089
:100AB0009FBD00008804002001681823CAB2103AC4
:100AC000B2FBF3F2054B6FF30901032A9B5CC3658C
:100AD00000D9091D816508467047000035A000084F
:100AE00010B583694FF0C074826A0146002053B18B
:100AF000B3F5005F15D072B1012A0CD0022A0AD0DA
:100B0000032A09D104E01AB1012A06D0022A03D12E
:100B1000C96AC90100D5012010BDC96AA142FAD035
:100B200010BD002AF7D0012AF2D0022AF3D0032AFE
:100B3000F3D010BD10B5046863608368402B036870
:100B400003D099600068C26010BD9A600068C160FF
:100B500010BD00002DE9FC4744780E4605460CB94F
:100B60004FF4807404F10800824251D16F1C4FF69B
:100B7000FF704FF00408ADF8040000BF17F8010B38
:100B800001A907F099FFB8F101001FFA80F8F5D22A
:100B9000BDF80400ADF80000002005E02A18311867
:100BA000401C927980B28A73A042F7D305F10608FF
:100BB0002746E94605E000BF18F8010B494607F053
:100BC0007BFF781E87B2F7D22919BDF80000C3B2A7
:100BD0008A799A421CD1C979B1EB102F18D1002023
:100BE000A41D06F1080103E02B5C421C0B5490B2DB
:100BF000A042F9D3B07A0021317070707480317BDB
:100C0000F07A00EB0120000270600120BDE8FC8753
:100C10000020FBE770B545680446284608F0DCFE76
:100C2000012808D1054804F10E016288284408F023
:100C300029FF012800D0002070BD000000000C0832
:100C40002DE9F041456800F10E0447884FF0000699
:100C5000042D08D10C492068884212D1E0686FF455
:100C60004031C8420DD1284608F0B6FE012808D10F
:100C700006483A462146284408F004FF012800D1DE
:100C800001263046BDE8F081CC33AA55008000082B
:100C900038B50446006800F58050816941F4801140
:100CA0008161206800F5805080690090012001F08A
:100CB000E5FD2068009900F58050816138BD000095
:100CC000014801F0B5BE0000E88301202DE9F041A4
:100CD000044621B14FF40061C800C4E90201E06993
:100CE0000025002862D028462368D4E9021C3A4F28
:100CF00040261A6841EA0C0101433A4041F4007071
:100D00001043186020680768012001F0B7FD2068D3
:100D100007602068466020684668012001F0AEFD4B
:100D200020684FF641724660206885602068C56083
:100D300021688869104040F08000886120688669D9
:100D4000012001F09BFD206886612068C561206854
:100D5000C569012001F092FD2068204B2049C56142
:100D6000206800F5805082691A4011438161206833
:100D700000F580508569012001F080FD2068194947
:100D800000F580508561206800F580500160206882
:100D900000F580500568012001F070FD206800F525
:100DA00080500560A069012803D009E04FF48060FD
:100DB0009AE720680C4A00F58050C1691143C1616F
:100DC00060690A4982880A640278D0F8010042EA20
:100DD00000204864BDE8F0810F8120FF233FDEF84A
:100DE000040020028020C102400001000080024077
:100DF000012002F0BDB94FF4007002F0B9B9000053
:100E0000094810B5816800290DD0002181600122B8
:100E1000172002F033FD172002F024FDBDE810403A
:100E20000020FFF72BBE10BDE8040020154AF0B5E6
:100E3000154C137804F1200528B1012814D00020A6
:100E400010705070F0BDFF208870002B0880F9D022
:100E50005078265C441C8E7004F01F04285C5B1ED6
:100E6000088054701370F0BD202BFCD257781846C0
:100E70008E78401C3B4403F01F03E6540978E95484
:100E80001070F0BD62000020B28401204FF000021B
:100E900029B101291FD0022920D04FF440720B281C
:100EA00000D9001D0F490B6823F440730B600B68D9
:100EB00013430B600A68022303EBC00322F0F8021D
:100EC0000A60086818430860086840F480300860C9
:100ED000BFF34F8F70474FF48072E0E74FF400721A
:100EE000DDE70000103C02400F4A0329136823F499
:100EF000407313600FD00229116811D041F0040132
:100F0000116011684FF4803343EA002001431160FF
:100F1000BFF34F8F7047116848F204031943EFE79E
:100F200041F40041ECE70000103C0240074A13681E
:100F300023F44073136013681360136843F00103D4
:100F400013600170BFF34F8F70470000103C0240E8
:100F5000094910B50C6824F440740C600C6844F422
:100F600040740C600C6844F001040C600260436043
:100F7000BFF34F8F10BD0000103C0240084A1368B9
:100F800023F440731360136843F480731360136891
:100F900043F0010313600180BFF34F8F70470000DF
:100FA000103C0240084A136823F44073136013682E
:100FB00043F400731360136843F00103136001608E
:100FC000BFF34F8F70470000103C02401349144894
:100FD0000A68920703D5826942F0200282610A689A
:100FE000D20603D5826942F0100282610A68920635
:100FF00003D5826942F0080282610A68520603D56D
:10100000826942F0040282610A68120603D582698D
:1010100042F002028261F220086070470C3C0240FC
:10102000C88A0120124970B505460020886102F087
:10103000A1F9104C064609E0681C07D025B102F062
:1010400099F9801BA84201D9032070BD2068C00314
:10105000F2D4206810F0F20F03D0FFF7B7FF0120A1
:1010600070BD2068C00701D001202060002070BD45
:10107000C88A01200C3C024070B5304C0220411E51
:10108000221812F8012C225411F0FF00F7D12C483D
:101090004FF4005102F064F901281CD05FF0FF000A
:1010A0004FF6FF7501212070625C824239D1491CE4
:1010B000C9B20329F8D32149FF284FF000044FF0AB
:1010C000FF02A1F1060108D04B78FF2B16D00E7855
:1010D000B0421DD01AE00420E2E74878FF2804D08F
:1010E0000B78FF2B04D00A701BE00A708C8018E08C
:1010F00000F500408A7080B28C801DE00A78904232
:1011000004D1487001228A80887070BD087008E0A0
:1011100083420BD18A88521C92B28A80B2F5967FA4
:1011200001D0284670BD00F5804070BD8A7003F57F
:1011300000438C8098B20A704A7070BD080000208D
:1011400000080240244910B50024421A884237D0D2
:1011500017DC224B4FF400419842A0EB030229D048
:1011600009DCB0F1006F21D01D4A801820D08842E0
:1011700018D102241AE08A421ED0B2F5203F11D1C4
:101180001CE0B2F5402F21D006DCB2F5802F19D03B
:10119000B2F5002F06D117E0B2F5801F18D0B2F5D6
:1011A000A01F17D080240FA005F062FF204610BDBD
:1011B0000124FBE70324F9E70424F7E70524F5E716
:1011C0000624F3E70724F1E70824EFE70924EDE715
:1011D0000A24EBE70B24E9E7000008080080010877
:1011E0000080FFF74E756C6C20736563746F720D31
:1011F0000A000000054810B5806918B908F060FDC4
:10120000012801D0012010BD002010BD788A0120E6
:1012100002488069002800D001207047288A0120F8
:10122000014800787047000064000020014890F8F1
:1012300038007047788A01200148407870470000E4
:1012400018000020006812B1016100207047C160E1
:10125000FBE700002DE9F84F044680684FF4807AE0
:101260000A9D80284FF00000009012D094F83400BE
:10127000012812D094F835700126002084F83460DB
:10128000012F0CD00221009184F834000098BDE8B1
:10129000F88FC4F854A00120F9E70220F7E70226EE
:1012A00084F8356060652068066846F4802606602C
:1012B000206803612B462046FFF73CFCFF4B4FF4B0
:1012C000006BFF4D4FF4001EFC4E6033FC4F603549
:1012D000DFF8EC831836DFF8E4C31837DFF8E09363
:1012E00008F1480821680CF1780CF44809F17809F4
:1012F000F34A414534D9814205D0914203D0994205
:1013000001D0A94201D1202125E0B14205D0B94246
:1013100003D0614501D0494501D159461BE0DFF8B2
:101320009C8308F13008414511D0DFF8948308F11F
:10133000300841450BD0DFF8848308F1900841451F
:1013400005D0DFF87C8308F19008414501D1714652
:1013500001E04FF00061DFF86883A8F1040839E08C
:10136000DFF8588308F1A808414536D9814205D0F5
:10137000914203D0994201D0A94201D1202125E018
:10138000B14205D0B94203D0614501D0494501D1F0
:1013900059461BE0DFF8248308F13008414511D09D
:1013A000DFF81C8308F1300841450BD0DFF80C83CF
:1013B00008F19008414505D0DFF8048308F1900852
:1013C000414501D1714601E04FF00061DFF8F08244
:1013D000A8F10808C8F8001072E0DFF8E08208F110
:1013E0004808414536D9814205D0914203D09942FF
:1013F00001D0A94201D1202125E0B14205D0B94256
:1014000003D0614501D0494501D159461BE0DFF8C1
:10141000AC8208F13008414511D0DFF8A48208F110
:10142000300841450BD0DFF8948208F1900841451F
:1014300005D0DFF88C8208F19008414501D1714652
:1014400001E04FF00061DFF87482A8F11008C8F8DD
:101450000C1035E0814205D0914203D0994201D071
:10146000A94201D1202125E0B14205D0B94203D0E3
:10147000614501D0494501D159461BE0DFF83C8266
:1014800008F13008414511D0DFF8348208F1300806
:1014900041450BD0DFF8248208F19008414505D082
:1014A000DFF81C8208F19008414501D1714601E046
:1014B0004FF00061DFF80482A8F11008C8F80810A6
:1014C0004FF4806BDFF8F8814FF4801E216808F13B
:1014D0004808414534D9814205D0914203D0994210
:1014E00001D0A94201D1102125E0B14205D0B94275
:1014F00003D0614501D0494501D159461BE0DFF8D1
:10150000BC8108F13008414511D0DFF8B48108F101
:10151000300841450BD0DFF8A48108F1900841451F
:1015200005D0DFF89C8108F19008414501D1714652
:1015300001E04FF08061DFF88881A8F1040839E00C
:10154000DFF8788108F1A808414536D9814205D0F5
:10155000914203D0994201D0A94201D1102125E046
:10156000B14205D0B94203D0614501D0494501D10E
:1015700059461BE0DFF8448108F13008414511D09D
:10158000DFF83C8108F1300841450BD0DFF82C81B1
:1015900008F19008414505D0DFF8248108F1900852
:1015A000414501D1714601E04FF08061DFF81081C3
:1015B000A8F10808C8F8001072E0DFF8008108F10F
:1015C0004808414536D9814205D0914203D099421D
:1015D00001D0A94201D1102125E0B14205D0B94284
:1015E00003D0614501D0494501D159461BE0DFF8E0
:1015F000CC8008F13008414511D0DFF8C48008F1F3
:10160000300841450BD0DFF8B48008F1900841451F
:1016100005D0DFF8AC8008F19008414501D1714652
:1016200001E04FF08061DFF89480A8F11008C8F85D
:101630000C1035E0814205D0914203D0994201D08F
:10164000A94201D1102125E0B14205D0B94203D011
:10165000614501D0494501D159461BE0DFF85C8066
:1016600008F13008414511D0DFF8548008F1300806
:1016700041450BD0DFF8448008F19008414505D082
:10168000DFF83C8008F19008414501D1714601E046
:101690004FF08061DFF82480A8F11008C8F8081026
:1016A0004FF4007BDFF818804FF4002E216808F11A
:1016B0004808414535D981420AD003E01060024014
:1016C00010640240914203D0994201D0A94201D155
:1016D000082121E0B14205D0B94203D0614501D0D3
:1016E000494501D1594617E0DFF8EC8441450FD058
:1016F000DFF8E88441450BD0DFF8DC8408F16008AE
:10170000414505D0DFF8D48408F16008414501D196
:10171000714601E04FF00071DFF8C084A8F1340891
:1017200035E0DFF8B48408F17808414532D98142C8
:1017300005D0914203D0994201D0A94201D108219C
:1017400021E0B14205D0B94203D0614501D04945FD
:1017500001D1594617E0DFF8808441450FD0DFF80A
:101760007C8441450BD0DFF8708408F16008414566
:1017700005D0DFF8688408F16008414501D1714661
:1017800001E04FF00071DFF85484A8F13808C8F880
:1017900000106AE0DFF8408408F11808414532D9AA
:1017A000814205D0914203D0994201D0A94201D192
:1017B000082121E0B14205D0B94203D0614501D0F2
:1017C000494501D1594617E0DFF80C8441450FD057
:1017D000DFF8088441450BD0DFF8FC8308F160088E
:1017E000414505D0DFF8F48308F16008414501D197
:1017F000714601E04FF00071DFF8DC83A8F140088A
:10180000C8F80C1031E0814205D0914203D09942D2
:1018100001D0A94201D1082121E0B14205D0B9424D
:1018200003D0614501D0494501D1594617E0DFF8A1
:10183000A88341450FD0DFF8A48341450BD0DFF8E2
:10184000988308F16008414505D0DFF8908308F1DE
:101850006008414501D1714601E04FF00071DFF8A9
:101860007883A8F14008C8F808104FF4802EDFF8FC
:101870006C832168DFF868B308F11808414530D956
:10188000814205D0914203D0994201D0A94201D1B1
:10189000594621E0B14205D0B94203D0614501D09B
:1018A000494501D1514617E0DFF82C8341450FD05F
:1018B000DFF8288341450BD0DFF81C8308F160086E
:1018C000414505D0DFF8148308F16008414501D196
:1018D000714601E04FF08071DFF80083A8F1340811
:1018E00035E0DFF8F48208F17808414532D98142C9
:1018F00005D0914203D0994201D0A94201D1594665
:1019000021E0B14205D0B94203D0614501D049453B
:1019100001D1514617E0DFF8C08241450FD0DFF812
:10192000BC8241450BD0DFF8B08208F16008414528
:1019300005D0DFF8A88208F16008414501D1714661
:1019400001E04FF08071DFF89482A8F13808C8F800
:1019500000106AE0DFF8808208F11808414532D9AA
:10196000814205D0914203D0994201D0A94201D1D0
:10197000594621E0B14205D0B94203D0614501D0BA
:10198000494501D1514617E0DFF84C8241450FD05F
:10199000DFF8488241450BD0DFF83C8208F160084F
:1019A000414505D0DFF8348208F16008414501D196
:1019B000714601E04FF08071DFF81C82A8F1400809
:1019C000C8F80C1031E0814205D0914203D0994211
:1019D00001D0A94201D1594621E0B14205D0B94216
:1019E00003D0614501D0494501D1514617E0DFF8E8
:1019F000E88141450FD0DFF8E48141450BD0DFF8A5
:101A0000D88108F16008414505D0DFF8D08108F1A0
:101A10006008414501D1714601E04FF08071DFF867
:101A2000B881A8F14008C8F808104FF4803BDFF8EF
:101A3000AC814FF4800EDFF8A8A1216808F11808E6
:101A4000AAF1030A414527D9814205D0914203D02A
:101A5000994201D0A94201D150461AE0B14205D0C5
:101A6000B94203D0614501D0494501D1402010E081
:101A7000594881420AD05948814207D056486030BF
:101A8000814203D055486030814201D1584600E080
:101A90007046524934392CE0DFF83C8108F178086F
:101AA000414528D9814205D0914203D0994201D0C5
:101AB000A94201D150461AE0B14205D0B94203D043
:101AC000614501D0494501D1402010E042488142A2
:101AD0000AD04248814207D03F486030814203D05B
:101AE0003E486030814201D1584600E070463B4993
:101AF0003839086056E0DFF8E08008F11808414501
:101B000028D9814205D0914203D0994201D0A942FF
:101B100001D150461AE0B14205D0B94203D0614527
:101B200001D0494501D1402010E02B4881420AD024
:101B30002A48814207D028486030814203D0274894
:101B40006030814201D1584600E070462249403958
:101B5000C86027E0814205D0914203D0994201D06C
:101B6000A94201D150461AE0B14205D0B94203D092
:101B7000614501D0494501D1402010E0164881421D
:101B80000AD01648814207D013486030814203D002
:101B900012486030814201D1584600E070460E493B
:101BA000403988602068016841F0160101602068B2
:101BB000416941F080014161206C08B9A06C20B1FD
:101BC0002068016841F0080101602068016841F067
:101BD00001010160FFF75ABB4060024040640240CF
:101BE000040080002DE9F84F044680684FF4807AA5
:101BF0000A9D80284FF00000009012D094F8340025
:101C0000012812D094F835700126002084F8346041
:101C1000012F0CD00221009184F834000098BDE817
:101C2000F88FC4F854A00120F9E70220F7E7022654
:101C300084F8356060652068066846F48026066092
:101C4000206803612B462046FEF774FFFF4B4FF4DC
:101C5000006BFF4D4FF4001EFC4E6033FC4F6035AF
:101C6000DFF8EC831836DFF8E4C31837DFF8E093C9
:101C700008F1480821680CF1780CF44809F178095A
:101C8000F34A414534D9814205D0914203D099426B
:101C900001D0A94201D1202125E0B14205D0B942AD
:101CA00003D0614501D0494501D159461BE0DFF819
:101CB0009C8308F13008414511D0DFF8948308F186
:101CC000300841450BD0DFF8848308F19008414586
:101CD00005D0DFF87C8308F19008414501D17146B9
:101CE00001E04FF00061DFF86883A8F1040839E0F3
:101CF000DFF8588308F1A808414536D9814205D05C
:101D0000914203D0994201D0A94201D1202125E07E
:101D1000B14205D0B94203D0614501D0494501D156
:101D200059461BE0DFF8248308F13008414511D003
:101D3000DFF81C8308F1300841450BD0DFF80C8335
:101D400008F19008414505D0DFF8048308F19008B8
:101D5000414501D1714601E04FF00061DFF8F082AA
:101D6000A8F10808C8F8001072E0DFF8E08208F176
:101D70004808414536D9814205D0914203D0994265
:101D800001D0A94201D1202125E0B14205D0B942BC
:101D900003D0614501D0494501D159461BE0DFF828
:101DA000AC8208F13008414511D0DFF8A48208F177
:101DB000300841450BD0DFF8948208F19008414586
:101DC00005D0DFF88C8208F19008414501D17146B9
:101DD00001E04FF00061DFF87482A8F11008C8F844
:101DE0000C1035E0814205D0914203D0994201D0D8
:101DF000A94201D1202125E0B14205D0B94203D04A
:101E0000614501D0494501D159461BE0DFF83C82CC
:101E100008F13008414511D0DFF8348208F130086C
:101E200041450BD0DFF8248208F19008414505D0E8
:101E3000DFF81C8208F19008414501D1714601E0AC
:101E40004FF00061DFF80482A8F11008C8F808100C
:101E50004FF4806BDFF8F8814FF4801E216808F1A1
:101E60004808414534D9814205D0914203D0994276
:101E700001D0A94201D1102125E0B14205D0B942DB
:101E800003D0614501D0494501D159461BE0DFF837
:101E9000BC8108F13008414511D0DFF8B48108F168
:101EA000300841450BD0DFF8A48108F19008414586
:101EB00005D0DFF89C8108F19008414501D17146B9
:101EC00001E04FF08061DFF88881A8F1040839E073
:101ED000DFF8788108F1A808414536D9814205D05C
:101EE000914203D0994201D0A94201D1102125E0AD
:101EF000B14205D0B94203D0614501D0494501D175
:101F000059461BE0DFF8448108F13008414511D003
:101F1000DFF83C8108F1300841450BD0DFF82C8117
:101F200008F19008414505D0DFF8248108F19008B8
:101F3000414501D1714601E04FF08061DFF8108129
:101F4000A8F10808C8F8001072E0DFF8008108F175
:101F50004808414536D9814205D0914203D0994283
:101F600001D0A94201D1102125E0B14205D0B942EA
:101F700003D0614501D0494501D159461BE0DFF846
:101F8000CC8008F13008414511D0DFF8C48008F159
:101F9000300841450BD0DFF8B48008F19008414586
:101FA00005D0DFF8AC8008F19008414501D17146B9
:101FB00001E04FF08061DFF89480A8F11008C8F8C4
:101FC0000C1035E0814205D0914203D0994201D0F6
:101FD000A94201D1102125E0B14205D0B94203D078
:101FE000614501D0494501D159461BE0DFF85C80CD
:101FF00008F13008414511D0DFF8548008F130086D
:1020000041450BD0DFF8448008F19008414505D0E8
:10201000DFF83C8008F19008414501D1714601E0AC
:102020004FF08061DFF82480A8F11008C8F808108C
:102030004FF4007BDFF818804FF4002E216808F180
:102040004808414535D981420AD003E0106002407A
:1020500010640240914203D0994201D0A94201D1BB
:10206000082121E0B14205D0B94203D0614501D039
:10207000494501D1594617E0DFF8E88441450FD0C2
:10208000DFF8E48441450BD0DFF8D88408F160081C
:10209000414505D0DFF8D08408F16008414501D101
:1020A000714601E04FF00071DFF8BC84A8F13408FC
:1020B00035E0DFF8B08408F17808414532D9814233
:1020C00005D0914203D0994201D0A94201D1082103
:1020D00021E0B14205D0B94203D0614501D0494564
:1020E00001D1594617E0DFF87C8441450FD0DFF875
:1020F000788441450BD0DFF86C8408F160084145D5
:1021000005D0DFF8648408F16008414501D17146CB
:1021100001E04FF00071DFF85084A8F13808C8F8EA
:1021200000106AE0DFF83C8408F11808414532D914
:10213000814205D0914203D0994201D0A94201D1F8
:10214000082121E0B14205D0B94203D0614501D058
:10215000494501D1594617E0DFF8088441450FD0C1
:10216000DFF8048441450BD0DFF8F88308F16008FC
:10217000414505D0DFF8F08308F16008414501D101
:10218000714601E04FF00071DFF8D883A8F14008F4
:10219000C8F80C1031E0814205D0914203D0994239
:1021A00001D0A94201D1082121E0B14205D0B942B4
:1021B00003D0614501D0494501D1594617E0DFF808
:1021C000A48341450FD0DFF8A08341450BD0DFF851
:1021D000948308F16008414505D0DFF88C8308F14D
:1021E0006008414501D1714601E04FF00071DFF810
:1021F0007483A8F14008C8F808104FF4802EDFF867
:1022000068832168DFF864B308F11808414530D9C4
:10221000814205D0914203D0994201D0A94201D117
:10222000594621E0B14205D0B94203D0614501D001
:10223000494501D1514617E0DFF8288341450FD0C9
:10224000DFF8248341450BD0DFF8188308F16008DC
:10225000414505D0DFF8108308F16008414501D100
:10226000714601E04FF08071DFF8FC82A8F134087C
:1022700035E0DFF8F08208F17808414532D9814233
:1022800005D0914203D0994201D0A94201D15946CB
:1022900021E0B14205D0B94203D0614501D04945A2
:1022A00001D1514617E0DFF8BC8241450FD0DFF87D
:1022B000B88241450BD0DFF8AC8208F16008414597
:1022C00005D0DFF8A48208F16008414501D17146CC
:1022D00001E04FF08071DFF89082A8F13808C8F86B
:1022E00000106AE0DFF87C8208F11808414532D915
:1022F000814205D0914203D0994201D0A94201D137
:10230000594621E0B14205D0B94203D0614501D020
:10231000494501D1514617E0DFF8488241450FD0C9
:10232000DFF8448241450BD0DFF8388208F16008BD
:10233000414505D0DFF8308208F16008414501D100
:10234000714601E04FF08071DFF81882A8F1400873
:10235000C8F80C1031E0814205D0914203D0994277
:1023600001D0A94201D1594621E0B14205D0B9427C
:1023700003D0614501D0494501D1514617E0DFF84E
:10238000E48141450FD0DFF8E08141450BD0DFF813
:10239000D48108F16008414505D0DFF8CC8108F10F
:1023A0006008414501D1714601E04FF08071DFF8CE
:1023B000B481A8F14008C8F808104FF4803BDFF85A
:1023C000A8814FF4800EDFF8A4A1216808F1180855
:1023D000AAF1030A414527D9814205D0914203D091
:1023E000994201D0A94201D150461AE0B14205D02C
:1023F000B94203D0614501D0494501D1402010E0E8
:10240000584881420AD05848814207D05548603028
:10241000814203D054486030814201D1584600E0E7
:102420007046514934392CE0DFF8388108F17808DA
:10243000414528D9814205D0914203D0994201D02B
:10244000A94201D150461AE0B14205D0B94203D0A9
:10245000614501D0494501D1402010E04148814209
:102460000AD04148814207D03E486030814203D0C3
:102470003D486030814201D1584600E070463A49FB
:102480003839086056E0DFF8DC8008F1180841456B
:1024900028D9814205D0914203D0994201D0A94266
:1024A00001D150461AE0B14205D0B94203D061458E
:1024B00001D0494501D1402010E02A4881420AD08C
:1024C0002948814207D027486030814203D02648FE
:1024D0006030814201D1584600E0704621494039C0
:1024E000C86027E0814205D0914203D0994201D0D3
:1024F000A94201D150461AE0B14205D0B94203D0F9
:10250000614501D0494501D1402010E01548814284
:102510000AD01548814207D012486030814203D06A
:1025200011486030814201D1584600E070460D49A3
:10253000403988602068016841F016010160206818
:10254000416941F080014161206C18B9A06C0028FC
:102550003FF464AB2068016841F008010160FFF7B7
:102560005DBB000040600240406402400400800007
:1025700090F83510022903D0802141650120704771
:10258000052180F835100068016821F00101016023
:102590000020704770B5040025D094F8350002285B
:1025A00020D0206800252122016821F0010101606E
:1025B0002068056020684560206885602068C560E7
:1025C00020680561206842612046FEF775FA94F89C
:1025D0005C203F2191408160656584F83550002082
:1025E00084F8345070BD012070BD90F835007047FC
:1025F0002DE9F84304464FF00008654B0820CDF85C
:1026000000804FF41652A56D94F85C101B682E687C
:10261000B3FBF2F700FA01F131420FD021680A68EA
:1026200052070BD50A6822F004020A6094F85C1085
:102630008840A860606D40F00100606594F85C100F
:1026400054488840304208D021684969090604D5B9
:10265000A860606D40F0020060654E4894F85C1020
:10266000C01C8840304208D021680968890704D519
:10267000A860606D40F00400606594F85C10102064
:102680008840304218D021680968090714D5A8602D
:1026900020680168490304D50068000308D5A16CCF
:1026A00007E00168C90503D4016821F00801016051
:1026B000216C09B12046884794F85C1020204FF027
:1026C00001098840304231D021680968C9062DD5FA
:1026D000A86094F8350005282068016806D04903F1
:1026E00047D5006800031DD4616C1CE021F0160181
:1026F00001602068416921F080014161206C08B9C6
:10270000A06C20B12068016821F00801016094F8F4
:102710005C303F229A40AA6084F8348084F8359077
:10272000216D1FE0E16B09B120468847606D0028EC
:102730002BD0606DC00714D0052084F835002068C8
:10274000016821F0010101600098401C0090B8422E
:1027500003D820680068C007F6D184F8348084F874
:102760003590E16C002910D001B02046BDE8F0435F
:1027700008470168C905D5D4036823F01003036036
:1027800084F8348084F83590CCE7BDE8F883000005
:1027900058000020010080002DE9F047044600F0B9
:1027A000E9FD054664B14FF0000984F83490022138
:1027B00084F835102068016821F0010101600EE005
:1027C0000120BDE8F08700BF00F0D4FD401B0528C4
:1027D00005D920216165032084F83500F1E72068E0
:1027E0000068C007F0D1D4E90020D4E90251D4E94F
:1027F000043C284304F1180519430843116895E87F
:10280000E00140EA0C001C4B2843194040EA060056
:1028100040EA0700B8F1040F40EA010003D1D4E90F
:102820000B1319430843106020680126656A40694C
:10283000042D20F0070045EA00050CD1D4E90A0177
:10284000054341B12046FEF74BF920B140206065B9
:1028500084F83560B4E7206845612046FEF72CF91E
:1028600094F85C303F229A408260C4F8549084F817
:1028700035600020A5E700003F8010E031B500F092
:1028800079FD044600F076FD0099001B8842F9D3DB
:1028900038BD2DE9F04390F845400025012C0DD0BE
:1028A00002264FF0010944F2C21780F8459080F8E3
:1028B00044605E1E4FF0004C816217E00220BDE8CC
:1028C000F08301EB4514C5EB4518C8EB0528C4F8A7
:1028D00000C002EB4808B542C4E9017804D204F113
:1028E0002008C4F80C8000E0E1606D1C9D42E8D334
:1028F0000368002403F58053D96080F8449080F881
:1029000045402046DBE700002DE9F04390F84540C4
:1029100091460022012C09D00126C162022480F8D0
:1029200045605D1E80F84440E70422E00220BDE8D7
:10293000F08300BFC2EB4214C4EB022801EB421447
:1029400009EB480C2760C4F808C0D0F81CC0BCF1E3
:10295000000F05D1D4F800C04CF4400CC4F800C0FE
:10296000AA4204D204F1200CC4F80CC000E0E160DB
:10297000521C9A42DED30268002302F58052116194
:1029800080F8446080F845301846D0E701A004F094
:102990006FBB000048414C5F4554485F4572726F01
:1029A0007243616C6C6261636B0A000010B590F851
:1029B0004510012913D0012280F84520022100236F
:1029C00080F84410816A0C68002C28DB0C68E40550
:1029D00019D5846B641C8463012C02D002E00220B0
:1029E00010BD016341630C68C4F30D44241FC4632C
:1029F000046BA4680464C968816280F8442080F88C
:102A00004530002010BD0C68A40503D58263C0E9E1
:102A10000C1302E0846B641C8463C968816280F8D3
:102A2000442080F84530012010BD90F844007047E4
:102A300070B504460068002500F580500126416904
:102A4000490608D5204600F0AFF92068402100F57E
:102A50008050416109E04069C0070AD0204600F07B
:102A600085FA206800F58050466184F8446084F857
:102A700045504FF48031206800F580504161206856
:102A800000F58050406900040CD52046FFF77EFF1A
:102A900020684FF4004100F58050416184F84460A3
:102AA00084F8455070BD00002DE9FC474FF000064A
:102AB0000400B146009603D094F8440018B107E032
:102AC0000120BDE8FC8784F84560204600F0E2F86C
:102AD0006648016841F480410160006800F480406C
:102AE00001906348016821F4000101600168226AD5
:102AF00011430160206800F58050016841F0010138
:102B0000016000F037FC4FF4FA77054609E000BF9A
:102B100000F030FC401BB84203D9032084F8440085
:102B200068E0206800F580500068C007F0D1206898
:102B3000006920F01C0501F015FA4E4A4E49024486
:102B40008A4202D245F0080516E04C494C4A01443D
:102B5000914202D245F00C050EE04A4A4A4902442D
:102B60008A4209D3494A4A491044884202D245F070
:102B7000040501E045F010052068056100214FF4CF
:102B80000042204600F004FA4FF00105B0BB0120DE
:102B9000FFF774FE606890B300F0ECFB804641F2F2
:102BA000883701216A46204600F0BAF800F0E2FBBF
:102BB000A0EB0800B84217D800984007F1D50021D3
:102BC00020464FF4805200F0E3F9B8B900F0D2FB90
:102BD00080466A460121204600F0A2F800F0CAFBB8
:102BE000A0EB0800B8420BD901212046FEF76EF891
:102BF00084F8445084F84560032062E724E018E03C
:102C000000988006E5D510216A46204600F088F835
:102C1000D0B90098410703D54FF40061E16000E0AE
:102C2000E660800701D5A66018E04FF48040A06000
:102C300014E0D4E90210C00840EA510082B22046F4
:102C4000002100F0A5F930B101212046FEF73EF841
:102C500084F8445034E70F20FFF710FE4946204621
:102C6000FEF734F884F8445000202AE74438024044
:102C70000438014000D3CEFEC0E1E40040F1E9FD9C
:102C800040787D0100796CFC005A6202001F0AFA4C
:102C900080F0FA02F0B5006887B01C49884232D152
:102CA0001B48016841F000710160016801F000718A
:102CB0000591016841F080610160016801F0806167
:102CC0000591016841F0006101600068022400255F
:102CD000694600F00060059003260B274FF4D040B2
:102CE0008DE8F1000B4800F04FFA322069468DE87C
:102CF000F100094800F048FA862069468DE8F100A5
:102D0000064800F041FA07B0F0BD00000080024024
:102D10003038024000180240000802400000024023
:102D20002DE9F047044690F84400914682281DD0D2
:102D300082224FF6FF7084F844204FF4F863226833
:102D400003EA8111258A136900EAC52003F01C03F8
:102D50001843014321F0020040F00105156100F025
:102D600009FB012706464FF4803811E00220BDE838
:102D7000F08700BF00F0FEFA801B404506D300201C
:102D800084F8447084F845000320F0E72068056962
:102D9000E807EFD12068406981B2C9F8001084F8D3
:102DA00044700020E3E7000001A004F061B90000D6
:102DB00048414C5F4554485F527843706C7443619E
:102DC0006C6C6261636B0D0A00000000F8B504468C
:102DD00090F84500012839D0012584F8455002209B
:102DE00084F8440020680026016841F00801016071
:102DF0002068006800902846FFF740FD2168009891
:102E000008602068016841F00401016020680068E2
:102E100000900120FFF732FD2168009808602046ED
:102E2000FDF736FF206800F58050816941F40051BC
:102E30008161206800F58050816941F00201816163
:102E400084F8445084F845600020F8BD0220F8BDA5
:102E50002DE9F04390F845200023012A15D00126E2
:102E600080F84560022280F844204FF0000471B1E0
:102E7000C56A2A68002A0DDA122180F8441000BFC2
:102E800080F845400120BDE8F0830220FBE780F890
:102E90004460F5E74FF4E177B9420BD9B1FBF7F2A3
:102EA00007FB121CB1FBF7F2BCF1000F00D0521C63
:102EB000012A47D12A68C1F30C0142F040522A602E
:102EC000C26A5160C16A0A6842F000420A60C16A7F
:102ED000C968C16238E000BFD5F800C02CF0405C82
:102EE000C5F800C033B9C56AD5F800C04CF0805CA5
:102EF000C5F800C0D0F82CC0551EAB42CCF8047009
:102F000015D1C56AC2F1010CA946D5F80080CCEBF9
:102F10004C15C5EB0C2C48F00058C9F8008001EBAB
:102F20004C05D0F82CC0C5F30C05CCF80450C56A8C
:102F3000D5F800C04CF0004CC5F800C0C56A5B1C59
:102F4000ED68C5629342C7D3016801F580514A69B3
:102F5000520705D504224A61016801F580514C6091
:102F600080F8446080F8454000208CE701A004F020
:102F70007FB8000048414C5F4554485F5478437027
:102F80006C7443616C6C6261636B0D0A000000003D
:102F90002DE9F041044690F8440042281ED042201A
:102FA0004FF6FF7384F8440096B220684FF4F86738
:102FB000258A07EA81110269466103EAC520236870
:102FC00002F01C021043014341F003051D6100F0B3
:102FD000D1F9012706464FF4803811E00220BDE800
:102FE000F08100BF00F0C6F9801B404506D30020E9
:102FF00084F8447084F845000320F0E720680569F0
:10300000E807EFD184F84470E9E700002DE9F047C4
:10301000044620480F46017D012909D001214CF2C8
:103020005039804601754846FDF7FCFF18B12CE089
:103030000220BDE8F0874FF0FF3139602168164D5E
:10304000012901D0A6681BE0207C6168FDF74CFFD8
:103050004846FDF7E7FF296848F2040291432960DA
:1030600013E0217C3046FDF711FF4846FDF7DAFFFB
:10307000296821F0FA01296008B13E6005E0761C5C
:10308000D4E902211144B142EBD8002288F814207F
:10309000CFE70000C88A0120103C024003480168C5
:1030A00041F000410160002070470000103C0240E8
:1030B0002DE9F0471D4D074614461E468946287DDA
:1030C000012808D001204CF2503828754046FDF701
:1030D000A9FF18B126E00220BDE8F08737B1012F23
:1030E00009D0022F0CD0032F14D10EE04846E1B2D4
:1030F000FDF71CFF0EE0A1B24846FDF73FFF09E0D7
:1031000021464846FDF74EFF04E022463346484636
:10311000FDF71EFF4046FDF785FF05490A6822F0CE
:1031200001020A6000212975D6E70000C88A012043
:10313000103C024006480068002807DA04480549A8
:103140000C38054A0160026000207047012070477A
:10315000103C024023016745AB89EFCDB0F5007FFD
:1031600003D0012803D102F05BB803F0AFB9704778
:10317000044910B50A68024202D00860FFF7EEFF6A
:1031800010BD0000143C01402DE9F84FDFF89CE130
:1031900000224FF001084FF0030B4FF00F0A00BF61
:1031A0000B6808FA02F42340A34271D14D68022D46
:1031B00001D0122D0FD1D5080E69570700EB8505F8
:1031C000A9462D6AFF0E0AFA07FCBE4025EA0C0547
:1031D0002E43C9F820600F79550006680BFA05FCEC
:1031E00007F0030726EA0C06AF40374307604E6836
:1031F000012E05D0022E03D0112E01D0122E0ED199
:103200008668CF6826EA0C06AF4037438760466879
:103210000F79A643C7F30017974037434760C46848
:103220008E6824EA0C04AE402643C6604C68E40075
:1032300075D53F4C256845F480452560246822F00B
:103240000306950704F4804400943A4C2D0F26445D
:10325000D6F80848DFF8E0C00AFA05F7604524EA26
:10326000070401D100272EE0344FB84201D10127D5
:1032700029E0334FB84201D1022724E0314FB84250
:1032800001D103271FE0304FB84202D104271AE0D2
:1032900045E02E4FB84201D1052714E02C4FB8422B
:1032A00001D106270FE02B4FB84201D107270AE0D2
:1032B000294FB84201D1082705E0284FB84201D173
:1032C000092700E00A27AF4027437546C6F808786B
:1032D0004E68DEF80040F60324EA030400D51C43E0
:1032E000124E2C60361D4D683468AD0324EA030489
:1032F00000D51C430D4F346008374D683C68ED0223
:1033000024EA030400D51C43084D3C600C354E688C
:103310002C68B60224EA030400D51C432C60521C1E
:10332000102AFFF43DAFBDE8F88F0000003C0140DB
:1033300044380240003001400000024000040240D6
:1033400000080240000C024000100240001402403D
:1033500000180240001C02400020024000240240ED
:103360000069084000D0012070470AB181617047B0
:103370000904FBE7014800687047000000020020D4
:103380000268436B91691268002B00D018477047A0
:1033900038B50446006801258168009194F8391019
:1033A000042917D094F8391003295ED100998907B0
:1033B00046D54068C043000642D4216A20468A1C94
:1033C000226222680988D160E18C491EE184E18C87
:1033D00069B335E00099C90717D04168C943490668
:1033E00013D4C2682046A16A8B1CA3620A80E18DB7
:1033F000491EE185E18D41B901684A6822F0600209
:103400004A6080F8395000F0CDF9009840062CD57C
:1034100020684168C943890627D4416821F06001CA
:10342000416084F83950E06B40F0020019E0016817
:103430004A6822F0A0024A6080F8395000F0BCF9D6
:103440000098000711D520684168C94389060CD44B
:10345000416821F0A001416084F83950E06B40F0F0
:103460000400E0632046FCF7C9FF38BD2DE9F041B8
:1034700004004FF002054FF000074FF0010605D0A1
:1034800094F839004FF0000818B107E00120BDE8BA
:10349000F08184F83880204600F086F8022084F815
:1034A0003900216840F6BF73CA699A43CA6121682E
:1034B000086222686169D069022983B244D0E06859
:1034C00000B10226E069012804D002284FF0000074
:1034D0001AD101E02B4817E02B4805686D0201D492
:1034E0002A4D00E02A4D006800F03F00B5FBF0F0E7
:1034F000254D8035D5F800C02D68C5F38817CCF36D
:1035000002754743B7FBF5F02569B5F5007F36D066
:103510007501B0FBF5F000BF00EB80004FF6FF75C2
:103520004000B0FBF1F00A21401D80B2B0FBF1F089
:1035300000F00101401A05EA0127C0F34F05A81E5B
:10354000FE2801D302250027208A0126414680B2A9
:10355000384328431062A088B4F808C0A289278B9A
:1035600040EA0C0025683A43104380B2184340F407
:103570000060E861E16384F83960002087E7000AB1
:10358000CAE700000080BB00043802400024F400B9
:1035900040787D0100680349884201D101F088BD6F
:1035A000704700000038004070B50646334A344882
:1035B00000250224316886B091423ED1016841F471
:1035C000804101600068052100F4804005904FF4BF
:1035D00030408DE83100CDE903512A486946FFF7B4
:1035E000D3FD294C29480115206065608214A5602F
:1035F0000B01C4E903511434C80184E82C00C4E968
:1036000003052148143CFEF7C5FF2046FFF7C4F828
:1036100038B11FA003F02CFD4FF4AE7123A003F0CE
:1036200017FD0022746324201146A66300F026F9DA
:10363000242000F017F906B070BD234A9142FAD158
:10364000016841F40041016000680626694600F403
:10365000004005904FF4A0508DE831001B48CDE9A3
:103660000356FFF791FD4FF4004069468DE83100A5
:103670001748CDE90356FFF787FDDCE70038004027
:103680004038024000040240BC6200205860024002
:103690002048414C5F444D415F496E697420213D93
:1036A0002048414C5F4F4B0D0A0000002E2E5C61FC
:1036B00070705C73746D3332663778785F68616CF4
:1036C0005F6D73702E630000003C004000080240F4
:1036D00000000240F8B5044631B12AB123B194F894
:1036E0003900012802D053E00120F8BDA162206812
:1036F000C56905F00705032D25D0C06900F0070056
:10370000052820D0A385E38594F8380001283FD010
:103710000025012384F838300420E56384F839005B
:10372000636B1C481864636B1B48D863636B1B484E
:103730005864636B1A48D8642068C369C3F30123D3
:10374000032B07D009E04FF6FF7000EA4300A08585
:10375000E085D9E7C36883680093A38D009313467F
:10376000666B0A4600F10C013046FDF773FD2068D8
:10377000C169490503D4C16941F48061C161206810
:10378000416841F00101416084F838500020F8BDE3
:103790000220F8BDBD510008595100088B510008A6
:1037A0003151000800680349884201D101F0A0BCF2
:1037B0007047000000380040704700000248016870
:1037C000491C01607047000000020020032010B572
:1037D00000F074F8002000F005F800F017F8002061
:1037E00010BD0000084910B504464FF47A7009680E
:1037F000B1FBF0F001F0BDF800222146501E00F0B0
:103800003DF8002010BD000058000020032010B536
:1038100000F054F800226FF00B00114600F02EF873
:1038200000226FF00A00114600F028F800226FF025
:103830000900114600F022F80022501F114600F046
:103840001DF80022101F114600F018F80022901EEB
:10385000114600F013F80022BDE81040501E11463A
:1038600000F00CB8410900F01F028900012001F1AD
:10387000E0219040C1F80001704700000E4BF0B409
:103880001B680D46C3F30223C3F10706042E00D9BB
:103890000426191D072901D2002300E0DB1E0124A4
:1038A00004FA06F19C40491E2940641E99401440C8
:1038B0002143F0BC02F050BA0CED00E0064900F0E4
:1038C000070210B54FF6FF040868044B204040EA99
:1038D00002201843086010BD0CED00E00000FA055E
:1038E0001848F8B5016841F0805101600068164C35
:1038F00000F080500090206840F480302060FFF796
:1039000039FD4FF47A76054605E000BFFFF732FD3A
:10391000401BB0420FD86068C003F7D5206840F460
:1039200000302060FFF726FD054606E0FFF722FD88
:10393000401BB04201D90320F8BD60688003F5D573
:103940000020F8BD40380240007000402DE9F84FDB
:1039500004460078DFF824944FF000063746C0078D
:103960000ED0D9F8001021F40001C9F80010D9F8E0
:103970000010626B1143C9F80010606B00B901269A
:10398000FE4D2068843500030ED5E16B286820F4D5
:10399000401008432860E06BB0F5801F01D010B1E3
:1039A00002E0012600E0012720684FF4800BC002EE
:1039B0000CD5216C286820F4400008432860206C56
:1039C000584501D1012601E000B901272068C10155
:1039D00000D50126800666D5E8483830016841F0F8
:1039E000805101600068DFF898A300F080500090DB
:1039F000DAF8001041F48071CAF80010FFF7BAFC41
:103A0000804605E0FFF7B6FCA0EB080064287DD8EF
:103A1000DAF80000C005F5D5DFF8608308F1680822
:103A2000D8F8000010F440702AD0218E01F44071C3
:103A3000814225D0D8F80010D8F8002021F4407138
:103A400042F48032C8F80020D8F8002022F48032F6
:103A5000C8F80020C8F80010D8F80000C0070FD040
:103A6000FFF788FC824607E0FFF784FCA0EB0A0121
:103A700041F288308142CAD8D8F800008007F3D5D7
:103A8000206BC0F3012103297ED0D9F8001021F466
:103A9000F811C9F80010228ED8F80010C2F30B02FA
:103AA0001143C8F800102078C00607D5286820F018
:103AB000807028602868A16B084328602188AF487F
:103AC0008830490405D5626E016821F44031114304
:103AD00001602188090405D5A26E016821F4402106
:103AE000114301602168C90305D5E26E016821F424
:103AF0004011114301602168890305D5226F0168D7
:103B000021F4400111430160217800E034E14906CD
:103B100005D5626C016821F0030111430160217831
:103B2000090605D5A26C016821F00C011143016062
:103B30002188C90505D5E26C016821F030011143E7
:103B400001602188890505D5226D016821F0C00139
:103B5000114301602188490505D5626D016821F492
:103B60004071114301602188090505D5A26D0168E6
:103B700021F44061114301602188C90407D5E26D39
:103B8000016821F4405100E05CE0114301602188AC
:103B9000890405D5226E016821F44041114301607A
:103BA0002168490205D5A26F016821F080611143A7
:103BB000016021684FF0006A890209D5E26F01684F
:103BC00021F0006111430160E16F514500D10127EF
:103BD0002168490305D5626F016821F040711143E6
:103BE00001602168090206D5D4F88020016821F01F
:103BF0008051114301602168490106D5D4F8842021
:103C0000016821F00051114301602068000106D5D0
:103C1000D4F88810286820F00070084328602068D5
:103C2000C00006D5D4F88C10286820F080600843C6
:103C30002860DFF85091012E0ED02068B0F1007F8F
:103C40000AD090E0504AD9F80030104023F4F8121E
:103C50000243C9F800201EE7D9F800004E4620F0C4
:103C60008060C9F80000FFF785FB804606E000BFD2
:103C7000FFF780FBA0EB080064287DD830680001C6
:103C8000F6D421783D487C30C90712D0616B81B9E8
:103C9000237A62680168D0F800C09201C1F3014143
:103CA00042EA0142CCF3036142EA016141EA037155
:103CB000016021680A0303D5E26BB2F5801F04D0CE
:103CC000C9021AD5216C594517D16368016894F867
:103CD0000CC002689B01C1F3014143EA0141C2F3F8
:103CE000027241EA0C6141EA027101602968626A6C
:103CF00021F01F01521E114329602168C90110D50E
:103D0000238A62680168D0F800C09201C1F30361A0
:103D100042EA034242EA0162CCF3027142EA0171D3
:103D20000160216889010CD56168228A237B94F89F
:103D300008C0890141EA024141EA036141EA0C718C
:103D400001603168B04641F080613160FFF712FBDD
:103D5000064604E0FFF70EFB801B64286DD8D8F8F8
:103D600000000001F6D5E7B3D9F800004E4620F078
:103D70008050C9F8000009E05FE000000838024008
:103D80000070004000380240FFFCFF0FFFF7F2FA1E
:103D9000074604E0FFF7EEFAC01B64284DD83068F0
:103DA000C0438000F6D5216828480A0301D5E26B9C
:103DB0001AB1C9021DD5216CD9B963690168277E82
:103DC00002689B01C1F3014143EA0143C2F302715E
:103DD00043EA076242EA0171016029686FF0FF035C
:103DE00000E031E0A26A21F4F85103EB0222114312
:103DF00029602168890212D5E16F51450FD1218CCC
:103E0000626903689401026844EA0144C3F30361F0
:103E100044EA0163C2F3027143EA01710160306850
:103E200040F080503060FFF7A5FA044608E000BF7C
:103E3000FFF7A0FA001B642802D90320BDE8F88F21
:103E40003068C0438000F3D40020F7E78838024090
:103E50002DE9F04705000F4657D03E4E306800F080
:103E60000F00B84209D2306820F00F0038433060AC
:103E7000306800F00F00B84247D12878364C8007F0
:103E800005D5A968206820F0F00008432060287854
:103E9000C0072BD0304968680839012810D009685C
:103EA000022810D0890700292FDA216821F00301A8
:103EB00001432160FFF75EFA804641F288390EE047
:103EC00009688903EFE78901EDE700BFFFF752FAC0
:103ED000A0EB0801494502D90320BDE8F0876868D6
:103EE000216801F00C01B1EB800FEFD1306800F0D8
:103EF0000F00B8420BD9306820F00F003843306013
:103F0000306800F00F00B84201D00120E5E72878C2
:103F1000400705D5E968206820F4E0500843206098
:103F20002878000706D52869216821F4604141EA14
:103F3000C000206000F03CF82168084AC1F303117A
:103F4000515CC840064908600020FFF74BFC002088
:103F5000C3E70000003C024008380240CC9F000844
:103F600058000020014800687047000058000020F9
:103F70000449054809680068044AC1F38221515C7C
:103F8000C84070470838024058000020DC9F0008F5
:103F90000449054809680068044AC1F34231515C8C
:103FA000C84070470838024058000020DC9F0008D5
:103FB000144910B51448096811F00C0113D0134AC4
:103FC00004290FD008290ED10E49091F0B680C686F
:103FD00003F03F03640207D50C68B2FBF3F0C4F3AF
:103FE000881206E0104610BD0A68B0FBF3F0C2F379
:103FF000881209685043C1F30141491C4900B0FBD4
:10400000F1F010BD083802400024F40040787D0132
:104010002DE9F84F05004FF000076ED02878DFF843
:104020002093A9F1040AC007AAF104044CD0D9F8DE
:1040300000104846C1F38101012908D00068C0F38F
:10404000810002280AD1DAF80000400206D5206873
:10405000800339D568680028DFD035E06868B0F59E
:10406000803F0BD010B1B0F5A02F11D0206820F404
:1040700080302060206820F4802002E0206840F436
:1040800080302060686890B1FFF774F906460AE056
:10409000206840F480202060F0E700BFFFF76AF955
:1040A000801B642872D820688003F7D50CE0FFF7E6
:1040B00061F9064605E000BFFFF75CF9801B642844
:1040C000F0D820688003F7D42878800742D5D9F843
:1040D0000010484611F00C0F08D00068C0F38100B2
:1040E00002280BD1DAF80000400207D420688007CC
:1040F00018D5E868012800D114E01EE1E86800281E
:10410000206817D040F001002060FFF733F9064621
:1041100005E000BFFFF72EF9801B0228C2D82068F7
:104120008007F7D52869216821F0F80141EAC0002D
:1041300020600FE020F001002060FFF71BF9064629
:1041400005E000BFFFF716F9801B02281ED8206883
:104150008007F7D42878000729D5794869696C3039
:1041600000298046016812D041F001010160FFF78B
:1041700001F9064605E000BFFFF7FCF8801B0228A6
:1041800004D8D8F800008007F6D510E089E021F0C7
:1041900001010160FFF7EEF8064604E0FFF7EAF8D8
:1041A000801B02287DD8D8F800008007F6D4287834
:1041B00040076BD5DFF8888108F13808D8F800008F
:1041C000C0000BD4D8F8001041F08051C8F800109E
:1041D000D8F80000012700F080500090594801688D
:1041E000C90512D40168834641F480710160FFF76C
:1041F000C1F8064605E000BFFFF7BCF8801B642845
:104200004FD8DBF80000C005F6D54D4EA8686836DB
:1042100001280AD008B1052811D0306820F001002B
:104220003060306820F0040002E0306840F00100A7
:104230003060A868A0B1FFF79DF883460CE03068B5
:1042400040F004003060F0E7FFF794F8A0EB0B01BA
:1042500041F28830814268D830688007F4D50EE09A
:10426000FFF788F8834607E0FFF784F8A0EB0B011F
:1042700041F28830814258D830688007F4D42FB199
:10428000D8F8001021F08051C8F80010A869E0B3F8
:10429000D9F80010C1F3810102294ED0022820680C
:1042A00000E042E020F08070206003D0FFF762F869
:1042B00005463DE0FFF75EF8064604E0FFF75AF8D2
:1042C000801B022831D820688001F7D4D5E9092164
:1042D000DFF874C0D5E9070695F830304F0895F837
:1042E0002C1030430CEB074545EA8212104340EA9C
:1042F000016040EA0370CAF80000206840F0807056
:104300002060FFF737F8054605E014E0FFF732F8C4
:10431000401B022809D820688001F7D50BE000BFB8
:10432000FFF728F8401B022802D90320BDE8F88FC8
:1043300020688001F4D40020F8E70120F6E70000AF
:1043400008380240007000400000FFFF0068034989
:10435000884202D1022002F01FBE70470050014087
:1043600090F85D007047000038B504460068426868
:1043700081684B0605D4CB0703D0530601D5E16C09
:1043800004E08B0707D5130605D5216D01B0204643
:10439000BDE83040084711F4B07F49D0930647D5B7
:1043A0004B060AD594F85D30032B3ED0236E43F0C4
:1043B00004032366C368836800938B0609D5236EC4
:1043C00043F00103236683680093036823F04003EE
:1043D0000360C80506D5206E40F0080020662068FE
:1043E00080680090206E002822D0206892074FF04D
:1043F0000101426822F0E002426084F85D1018D0AA
:1044000020680E4D416821F003014160A06D18B194
:104410000565A06DFEF7ACF8606D002808D0056555
:10442000606DBDE83840FEF7A3B8C16880680090B1
:1044300038BD2046FFF78AFF38BD00001B62000828
:104440002DE9F047040005D094F85D000025A56231
:1044500018B107E00120BDE8F087204684F85C50E1
:1044600000F05AF8022284F85D204FF4E0632068DF
:10447000016821F040010160E068984201D9002103
:1044800001E04FF48051B0F5706F02D0984200D037
:10449000A5624FF00109266B2EB9984201D922631B
:1044A00001E0C4F83090D4E90468D4E90102278B14
:1044B00046EA0806A36A104307F4007830432668EA
:1044C000D4E907C240EA080040EA0C00CC460427C1
:1044D000104318433060D4F81880666B606AE26855
:1044E00007EA1847236830433A43104308435860AB
:1044F0002068C16921F40061C161256684F85DC04E
:104500000020A8E700680349884201D101F01ABDE4
:1045100070470000005001402DE9F0478046574A9F
:10452000574800240226D8F8001003250527914299
:1045300086B04FF4806947D1016841F48051016031
:10454000006802AA694600F4805005903820CDE941
:10455000000682E8B0004B48FEF716FE0120CDE9C8
:104560000205494D1021CDE9001069462846FEF7A5
:104570000BFE012228461021FEF7F7FE434D402294
:10458000434B4FF0C06108C5281F85E816022C6117
:104590006C61AC61EC612C622D1FFEF7FDF820B15F
:1045A0003CA040F2EF1102F053FDC8F85450012234
:1045B0000421C5F838802320FFF760F92320FFF796
:1045C00051F906B0BDE8F087394A914212D101682D
:1045D00041F400510160006802AA694600F40050ED
:1045E00005907420CDE9000682E8B0003148FEF75E
:1045F000CBFDE6E7304A9142E3D1016841F48011F6
:104600000160006802AADFF8B4A0694600F48010D7
:1046100005904FF45070CDE9000682E8B000504696
:10462000FEF7B2FD8020694602AACDE90006504699
:1046300082E8B000FEF7A8FD214D4FF060621449FA
:104640004FF440362846303129608B150421C5E9E6
:104650000124C5E903496C61C5E90861C5E9064360
:10466000FEF79AF820B10BA040F2422102F0F0FCD4
:10467000C8F85850C5F83880A3E700000030014062
:10468000443802400004024000000240C4030020FD
:10469000586402402E2E5C6170705C73746D33320E
:1046A000663778785F68616C5F6D73702E630000A9
:1046B000003401400010024000500140001402404C
:1046C00088040020F8B5044690F85C000026012814
:1046D00009D094F85D700120002584F85C00012F5A
:1046E00003D0022662E00220F8BD71B36AB363B35F
:1046F000A76804202164A4F8443084F85D0025668E
:10470000A4F84630E5642565A587E587B7F5004F31
:1047100004D12068036823F480430360E0684FF409
:10472000E063984204D8A06D8069B0F5005F0DD0B9
:104730002068476827F400574760E068984220687F
:10474000436805D923F4805304E0FFE701262DE0F8
:1047500043F480534360A06D0564A36D1548D8638E
:10476000A36D15485864A36D1448D864A06D056501
:10477000B4F84600134600900A462068A76D00F181
:104780000C013846FDF72EFA20680168490603D46B
:10479000016841F0400101602068416841F020015A
:1047A00041602068416841F001014160304684F871
:1047B0005C50F8BD4F620008C56100082D6200081A
:1047C00000680349884201D101F0F0BB7047000046
:1047D00000500140F0B590F85C500024012D0CD041
:1047E00090F85D500126476880F85C600026012D36
:1047F0000BD0B7F5827F06D101E00220F0BD8768BB
:104800000FB9042D01D002243CE0D1B1CAB1C3B12B
:1048100090F85D50042D02D0052580F85D50C568E4
:1048200006668163B5F5E06F02648387C387A0F8ED
:104830004430A0F8463006D91449C16414490165D2
:1048400009E001241EE0B0F84610124AC2640229B1
:10485000114A026504D301684A6822F4805203E0D9
:1048600001684A6842F480524A6001684A6842F02E
:10487000E0024A6001680A68520603D40A6842F0FE
:1048800040020A6080F85C602046F0BD15600008B8
:10489000AF6000084B600008E160000870B590F858
:1048A0005C300024012B0CD0012380F85C304FF0E9
:1048B000000341B13AB190F85D50012D05D00224BA
:1048C0002EE0022070BD01242AE0C668032580F88E
:1048D0005D500366B6F5E06F03648163A0F8443071
:1048E000C3648287C287A0F8463001D90E4900E030
:1048F0000E4901658168B1F5004F04D101680A686D
:1049000042F480420A6001684A6842F0A0024A60AC
:1049100001680A68520603D40A6842F040020A603D
:1049200080F85C30204670BD616300088163000838
:1049300000680349884201D101F0FCBA70470000C9
:104940000030014000680349884201D101F0E6BA15
:10495000704700000030014004284FF0E02001695A
:1049600003D021F004010161704741F00401FAE72E
:104970007047401EB0F1807F10B501D3012010BDFB
:104980004FF0E02460610F21601701F0E5F900208D
:10499000A0610721216110BD10B5FFF7E9FF10BD2F
:1049A0007047704710B5040003D094F83D0010B173
:1049B00007E0012010BD002084F83C00204600F0F4
:1049C0000DF8022084F83D002068211D01F02CFF25
:1049D000012084F83D00002010BD000008B50068EB
:1049E0000B49884212D10B48016841F00201016075
:1049F00000680022114600F0020000901D20FEF722
:104A00003DFFBDE808401D20FEF72CBF08BD00009B
:104A100000040040403802400168CA6842F00102C8
:104A2000CA600068016841F0010101600020704720
:104A3000704770B50446006800250169C9438907BD
:104A400015D4C168C943890711D4EA1E0261012146
:104A50002177206880698007204602D0FFF7E8FFB1
:104A600004E000F0A5F8204600F0A3F825772068C0
:104A70000169C943490717D4C168C943490713D419
:104A800002216FF00402026121772068806910F42E
:104A9000407F204602D0FFF7CBFF04E000F088F80B
:104AA000204600F086F8257720680169C943090788
:104AB00016D4C168C943090712D404216FF0080253
:104AC000026121772068C0698007204602D0FFF785
:104AD000AFFF04E000F06CF8204600F06AF825779C
:104AE00020680169C943C90617D4C168C943C9060A
:104AF00013D408216FF01002026121772068C06989
:104B000010F4407F204602D0FFF792FF04E000F04F
:104B10004FF8204600F04DF8257720680169C94319
:104B2000C90708D1C168C943C90704D1891E0161F9
:104B3000204600F03FF820686FF080050169C94306
:104B4000090607D4C168C943090603D40561204694
:104B5000FFF726FF20680169C943C90507D4C1686A
:104B6000C943090603D405612046FFF719FF2068F1
:104B70000169C943490609D4C168C943490605D436
:104B80006FF040010161204600F015F820680169CE
:104B9000C94389060BD4C168C943890607D46FF09D
:104BA000200101612046BDE87040FFF7FABE70BDEC
:104BB00070477047704770477047000070B50168D4
:104BC0000446C8690A688B6810F00F0F5CD003F0C8
:104BD000010502F490762E4369D0C60707D0D605AA
:104BE00005D501260E62E16E41F00101E166810703
:104BF00008D5D90706D0266802213162E16E41F05E
:104C00000401E166410708D5D90706D023680421CD
:104C10001962E16E41F00201E16601070AD502F076
:104C20002001294306D0236808211962E16E41F072
:104C30000801E166E16E002932D0800604D59006B5
:104C400002D5204601F008FFE06E000703D420687B
:104C50008068400625D5204601F0F0FE2068816876
:104C600049061AD5816821F040018160606EA0B1CB
:104C70002F490165606EFDF77BFC002810D0606E47
:104C8000016DBDE870400847830610D593060ED528
:104C90002046BDE8704001F0DFBE2046FFF78CFFE4
:104CA00070BD2046FFF788FF0020E06670BD030658
:104CB0002FD513062DD594F869002128F6D1B4F824
:104CC000520020B1A068B0F5805F0AD00BE0086800
:104CD00020F0800008602068016841F04001016018
:104CE00070BD206960B1E06C411CE164216800780E
:104CF000C1F82800B4F85200401EA4F8520070BD5C
:104D0000E06C0088C0F308008862E06C801CE064FE
:104D1000F0E74006F3D55006F1D50B682022204677
:104D200023F040030B6084F8692000F051F970BD56
:104D3000296A000810B5040003D094F8690010B186
:104D400007E0012010BD002084F86800204600F034
:104D500027F8242084F869002068016821F0010107
:104D60000160204601F0B4FE0128EBD0606A10B16A
:104D7000204601F0D5FD2068416821F49041416052
:104D80002068816821F02A0181602068016841F073
:104D9000010101602046BDE8104001F025BE000081
:104DA000F0B53C4F0322056802233B4901243B48F0
:104DB0000826BD4287B015D10D6845F400250D6069
:104DC00009688DE81C0001F400210392CDE904611B
:104DD0006946FEF7D9F9002234201146FEF74EFD50
:104DE00034201AE0DFF8B8C00727654519D10D68EF
:104DF00045F400350D60096801F40031059160212A
:104E00008DE81A00CDE903276946FEF7BDF90122B6
:104E100003212620FEF732FD2620FEF723FD07B0F2
:104E2000F0BD2048854218D1086840F48020086011
:104E30000868694600F4802005904FF440608DE8D2
:104E400019001948CDE90327FEF79EF90122032135
:104E50002720FEF713FD2720DFE714488542DED127
:104E60000D48001D016841F020010160006869469D
:104E700000F020000590C0208DE819000C48CDE915
:104E80000326FEF781F9002247201146FEF7F6FCC3
:104E90004720C2E7004C004040380240000C02406E
:104EA000004400400048004000040240001401405B
:104EB0000008024010B590F86A30202B3FD1C9B1EC
:104EC000C2B190F86830012B39D083680124416564
:104ED00080F86840A0F85820A0F85A20B3F5805F09
:104EE0004FF0FF0108D04FF07F0253B1B3F1805F64
:104EF0000CD011E0012010BD026922B940F2FF116F
:104F000001E0036933B9A0F85C1005E0016909B15B
:104F10003F21F8E7A0F85C2000212222C16680F83A
:104F20006A2080F8681001688A6842F001028A608D
:104F30000068016841F490710160002010BD0220FA
:104F400010BD000000680D49884211D10C48C168AD
:104F5000002912D181720189491CC1F30801018124
:104F6000008901220749014405487038FFF7A2BFB4
:104F70000549884201D101F061BF704700480040F7
:104F80008C050120A42501200044004090F86930E0
:104F9000202B1AD1B9B1B2B190F86830012B14D0DE
:104FA000C1640021A0F850202123A0F85220C1663E
:104FB00080F8693080F868100068016841F080016D
:104FC00001600020704701207047022070470000F8
:104FD00010B500681049884216D1104C20886188AD
:104FE000884202D10020606010BD608801220B4918
:104FF0001831014409487038FFF7C8FF6088401C29
:10500000C0F30C00608010BD05498842FBD1BDE8AB
:10501000104001F02BBF0000004800408C0501202B
:105020000044004001A002F023F8FEE70D0A2048EA
:105030006172644661756C745F48616E646C657220
:10504000200D0A0010B500F0E3FB00F079FB00F042
:105050002DFE03F01BFD03F003FF00F0BBFD00F08D
:10506000E9FD00F00FFD00F045FD00F017F900F03C
:1050700095FB00F0E7FCBDE8104000F0B9BC000073
:105080000148FEF77DB90000300200200148FEF71C
:1050900077B900007C0200200148FEF771B90000DA
:1050A000C80200200148FEF76BB90000140300207D
:1050B0000D4910B508784B78401C00F00700421CE1
:1050C000984202F007020ED0087002EBC2000749B6
:1050D000012201EB402105486038FCF7B3F8BDE838
:1050E000104004F07FBB10BD4C0000201C6300206A
:1050F0000D4910B508784B78401C00F00700421CA1
:10510000984202F007020ED0087002EBC200074975
:10511000002201EB402105486038FCF793F8BDE818
:10512000104004F05FBB10BD4C0000201C63002049
:1051300010B5806B002101230268546824F0030439
:105140005460C184C18580F83930C16B41F00801D9
:10515000C163FBF753F910BD10B501680968806B96
:10516000C9050FD4026800230121546824F001040A
:105170005460C38590F83920052A01D1C28C0AB940
:1051800080F83910FEF70EFB10BD10B501680968F4
:10519000806BC9050FD4026800230121546824F0F4
:1051A00001045460C38590F83920052A01D1C28CCE
:1051B0000AB980F83910FEF7EDF910BD10B5806B13
:1051C000FBF71DF910BD000002484188491C4180D1
:1051D000704700005E0000200028044801D0012232
:1051E00000E000228021FEF7C0B800000004024069
:1051F00010B50A4C2078401CC0B22070012807D09E
:10520000022804D10020FFF7E7FF0020207010BD26
:10521000BDE810400120FFF7DFBF000000000020C4
:1052200008B500206A461B2100900548FDF778FD6F
:105230000098400702D5002001F01CFA08BD0000CC
:10524000E883012070B50D4C20886188401C00F077
:105250000305A94203D10AA001F00AFF0CE020884F
:105260004FF4E0620A490B4BC0EBC00001EB002198
:10527000094800F045F82580002070BD0402002098
:10528000617564696F20627573790D0A0000000012
:10529000E88A01203EA00008E8A6012070B50D4C68
:1052A00000254BF68033256002220B48D900A580EB
:1052B000416000F55A71C0F88810C0E9103200F062
:1052C0008FF8002804DABDE8704004A001F0D0BED9
:1052D00070BD000004020020E8A601206661696C30
:1052E00020746F2063616C6C204D50415F656E636C
:1052F0006F64655F696E69742E2E2E0A00000000CF
:10530000F0B5D0F888400025B1B00E461F4606E043
:1053100007EB45022946204603F012FE6D1C636828
:10532000AB42F5DC002510E0D4E91021D4E91203EA
:1053300005EBC50C05EB450702EB4C2201EB4711D1
:1053400000EB451003F0D8FA6D1C6068A842EBDC56
:10535000224B0021F2EE040A6F4614E0002007EB16
:1053600081120CE003EB800595ED000A20EE200A87
:10537000BDEEC00A10EE105A22F81050401CE56C29
:105380008542EFDC491C60688842E7DC30AB394677
:1053900020AA204603F0E0F9206820214FF4605352
:1053A00000228660436106F5E063C0E9002120A980
:1053B000C0E90363309A204603F09AFBD4E9080160
:1053C0004FF49062821841F10000C4E9082020687F
:1053D000D0E9020131B0081AF0BD00002CBB000872
:1053E0002DE9F04705464FF0FF392DED068BD0F83B
:1053F000884041689E48D5E9107320609D486063ED
:10540000002B9D4860649D4820649D48A06401DD98
:10541000022B01DD9BA27DE04FF47A724FF0010A6E
:1054200091FBF2F61046C4E90137A24B00214FF47C
:10543000906206FB00FCC4F80CC00846EA642161D7
:1054400033F81020BA4208D0B7EB520F02D1C4F89B
:1054500010A002E0401C0328F2DB032855D022698B
:10546000954B9046A061C2EB0212002002EB420273
:1054700003EB420202EB4003DB8BB34202D0401C41
:105480000F28F7DB0F2843D000EE107A8B4A8946AD
:10549000B2EE001BB8EEC00B06FB02F1C4F8289078
:1054A00020EE011B00EE101A6061B8EEC00AB7EEE4
:1054B000C00A80EE012BB7EEC20BBDEEC01AB7EEEC
:1054C000C00A11EE100AC000E061B0EE408B01F09E
:1054D0001FFE38EE401B9FED7A0B43463A4630469E
:1054E00021EE000BBDEEC00B84ED0B0A616803F0EA
:1054F00007FD014674484A4650F821300020E36415
:10550000724B53F82110216512E071A23B4601E075
:1055100079A233460021284603F072F84846BDECD4
:10552000068BBDE8F08700BF04EB8001401C8A6356
:1055300061688142F8DC794B0020794A4FF480742D
:10554000860653F8201001F102014FEAA10122F86A
:10555000101000D04942E8B3C0F50076401CA042CC
:1055600022F81610ECDD00249FED6E9B6F4F032692
:10557000B0EE088B07F580789FED6DAB07F5A0794D
:10558000C4F1030000EE100AB8EEC00B80EE081B59
:10559000B0EE000B01F034FE20EE090BBDEEC00BA7
:1055A00010EE100A002800DC012047F8240094FBCC
:1055B000F6F0B0EE480BC0F1060194FBF6F008F8E7
:1055C000041006FB104001EE100AB8EEC12B82EE6B
:1055D000001B00E012E0B0EE000B01F011FE20EE27
:1055E0000A0BBCEEC00B10EE100A29F81400641C64
:1055F000402CC5DB0020504AC31E05E001209FE778
:10560000A0F14001994201DC00210DE0002902DAFD
:105610004FF0010108E002D14FF0020104E003293C
:1056200001DA032100E004211154401C8028E7DB4B
:10563000414A0020414B4FF6FF74803253F820104E
:10564000002901DA494201E001EB410101EB41018E
:1056500004EA810122F81010401C1128EEDB03F04F
:1056600061F8C5F89001C0F830A0002057E70000AD
:10567000A8AA0120C0AA0120C0CA012080CB012015
:1056800080EF0120656E636F64696E67202564207A
:105690006368616E6E656C287329206973206E6F74
:1056A0007420616C6C6F77656420696E206D703258
:1056B0000A000000F2B200083EB200080094110097
:1056C000000000000000F040FCB60008F8B9000837
:1056D00053616D706C696E6720726174652025641A
:1056E000206973206E6F7420616C6C6F7765642025
:1056F000696E206D70320A0062697472617465208F
:105700002564206973206E6F7420616C6C6F7765FF
:105710006420696E206D70320A000000F8B2000843
:10572000C0EF01200000000000003041C0F3012064
:10573000000000000000E04080F5012054B70008A0
:10574000154808B5016841F400110160016801F4D1
:1057500000110091016841F480010160006800229D
:10576000114600F4800000903B20FEF787F83B20B4
:10577000FEF778F8002244201146FEF77FF8442017
:10578000FEF770F800220E201146FEF777F8BDE80C
:1057900008400E20FEF766B83038024070B5134856
:1057A0000121114E4BF6803200240223B515C0E9C9
:1057B0000241C0E90442C0E90643C0E90065FDF7C3
:1057C00055FE18B129210AA001F042FC0E48847050
:1057D000047044704FF490630C4ABDE87040034875
:1057E000A2F59051FDF776BF003800407C620020A2
:1057F0002E2E5C6472697665725C6932735C693204
:1058000073322E63000000004C0000201C75002045
:105810006F482DE9F047016886B041F01001016042
:10582000016801F010010591016841F00201016079
:10583000016801F002010591016841F04001016039
:10584000016801F040010591016841F00401016027
:10585000016801F004010591016841F00101016056
:10586000016801F001010591016841F00801016042
:10587000016801F008010591016841F02001016013
:10588000016801F020010591016841F0800101608B
:1058900000680022DFF83C91082100F080000590AC
:1058A0004846FDF762FDDFF830814FF48146002263
:1058B00031464046FDF759FDDFF820A100224FF4A4
:1058C00000615046FDF751FD00246946012508207E
:1058D0000090CDE9015448460394FDF755FC00962D
:1058E0006946CDE9015440460394FDF74DFC680339
:1058F0006946CDE900043A480294FDF745FC4FF4AF
:1059000010600090CDE90154694650460394FDF7BC
:105910003BFC344F6E0200966946CDE90175504656
:10592000FDF732FCCDE90057694640460295FDF788
:105930002BFC002206201146FDF7A0FF0620FDF7F4
:1059400091FFA8036946CDE9000450460294FDF793
:105950001BFCDFF894804FF4407000906946CDE95D
:10596000015440460394FDF70FFC4FF4C0470097E5
:10597000CDE90154039469461C4C2046FDF704FC14
:10598000002239462046FDF7F0FC01223146404610
:10599000FDF7EBFCA415404600222146FDF7E5FC8F
:1059A000002248460821FDF7E0FC0122214650462E
:1059B000FDF7DBFC0120FCF761FF012248460821CE
:1059C000FDF7D3FC0120FCF759FF06B0BDE8F087D6
:1059D0003038024000000240000402400010024043
:1059E0000008024000003110001C0240000C024080
:1059F000114810B586B0016841F0040101600068EB
:105A000000246946029400F0040005904FF4005011
:105A1000CDE900040948FDF7B7FB0948FF2203213F
:105A2000FAF767FC0648FF21801F017041708480EF
:105A3000847006B010BD00003038024000080240FB
:105A40000800002070B50D4E4FF481450022294614
:105A500086B03046FDF789FC002400950120694698
:105A6000CDE9010430460394FDF78EFB69463046CC
:105A7000FDF78AFB0248047006B070BD00040240C6
:105A8000000000202DE9F04113484FF4E0650021AB
:105A9000104F4FF482760122C0E90215E0E8047647
:105AA0005302102480E81E00072501610826416189
:105AB000C0E90615C0E908160748FEF7C1FC002832
:105AC00005D0BDE8F041362104A001F0C1BABDE81F
:105AD000F081000000300140600300202E2E5C6445
